{
  "contractName": "Betting",
  "abi": [
    {
      "inputs": [],
      "payable": false,
      "stateMutability": "nonpayable",
      "type": "constructor"
    },
    {
      "constant": true,
      "inputs": [
        {
          "internalType": "uint256",
          "name": "",
          "type": "uint256"
        }
      ],
      "name": "gamblers",
      "outputs": [
        {
          "internalType": "address",
          "name": "",
          "type": "address"
        }
      ],
      "payable": false,
      "stateMutability": "view",
      "type": "function"
    },
    {
      "constant": true,
      "inputs": [
        {
          "internalType": "uint256",
          "name": "",
          "type": "uint256"
        }
      ],
      "name": "list_of_winners",
      "outputs": [
        {
          "internalType": "address",
          "name": "",
          "type": "address"
        }
      ],
      "payable": false,
      "stateMutability": "view",
      "type": "function"
    },
    {
      "constant": false,
      "inputs": [
        {
          "internalType": "address",
          "name": "input",
          "type": "address"
        }
      ],
      "name": "set_oracle",
      "outputs": [],
      "payable": false,
      "stateMutability": "nonpayable",
      "type": "function"
    },
    {
      "constant": true,
      "inputs": [],
      "name": "get_oracle",
      "outputs": [
        {
          "internalType": "address",
          "name": "",
          "type": "address"
        }
      ],
      "payable": false,
      "stateMutability": "view",
      "type": "function"
    },
    {
      "constant": true,
      "inputs": [],
      "name": "get_owner",
      "outputs": [
        {
          "internalType": "address",
          "name": "",
          "type": "address"
        }
      ],
      "payable": false,
      "stateMutability": "view",
      "type": "function"
    },
    {
      "constant": true,
      "inputs": [],
      "name": "get_gamblers_list",
      "outputs": [
        {
          "internalType": "address[]",
          "name": "",
          "type": "address[]"
        }
      ],
      "payable": false,
      "stateMutability": "view",
      "type": "function"
    },
    {
      "constant": false,
      "inputs": [
        {
          "internalType": "uint256",
          "name": "inp1",
          "type": "uint256"
        },
        {
          "internalType": "uint256",
          "name": "inp2",
          "type": "uint256"
        },
        {
          "internalType": "uint256",
          "name": "inp3",
          "type": "uint256"
        }
      ],
      "name": "set_outcomes",
      "outputs": [],
      "payable": false,
      "stateMutability": "nonpayable",
      "type": "function"
    },
    {
      "constant": false,
      "inputs": [
        {
          "internalType": "uint256",
          "name": "expected_outcome",
          "type": "uint256"
        },
        {
          "internalType": "uint256",
          "name": "bet_amount",
          "type": "uint256"
        }
      ],
      "name": "make_a_bet",
      "outputs": [
        {
          "internalType": "uint256",
          "name": "",
          "type": "uint256"
        },
        {
          "internalType": "uint256",
          "name": "",
          "type": "uint256"
        },
        {
          "internalType": "address[]",
          "name": "",
          "type": "address[]"
        }
      ],
      "payable": true,
      "stateMutability": "payable",
      "type": "function"
    },
    {
      "constant": false,
      "inputs": [
        {
          "internalType": "uint256",
          "name": "correct_outcome",
          "type": "uint256"
        }
      ],
      "name": "decide_winners",
      "outputs": [],
      "payable": false,
      "stateMutability": "nonpayable",
      "type": "function"
    },
    {
      "constant": true,
      "inputs": [],
      "name": "get_winners_list",
      "outputs": [
        {
          "internalType": "address[]",
          "name": "",
          "type": "address[]"
        }
      ],
      "payable": false,
      "stateMutability": "view",
      "type": "function"
    },
    {
      "constant": true,
      "inputs": [],
      "name": "same_bet",
      "outputs": [
        {
          "internalType": "bool",
          "name": "",
          "type": "bool"
        }
      ],
      "payable": false,
      "stateMutability": "view",
      "type": "function"
    },
    {
      "constant": false,
      "inputs": [
        {
          "internalType": "uint256",
          "name": "correct_outcome",
          "type": "uint256"
        }
      ],
      "name": "decide_the_outcome",
      "outputs": [
        {
          "internalType": "address[]",
          "name": "",
          "type": "address[]"
        }
      ],
      "payable": false,
      "stateMutability": "nonpayable",
      "type": "function"
    },
    {
      "constant": true,
      "inputs": [],
      "name": "get_total_bet_amount",
      "outputs": [
        {
          "internalType": "uint256",
          "name": "",
          "type": "uint256"
        }
      ],
      "payable": false,
      "stateMutability": "view",
      "type": "function"
    },
    {
      "constant": false,
      "inputs": [
        {
          "internalType": "uint256",
          "name": "amount",
          "type": "uint256"
        }
      ],
      "name": "take_my_winning_amount",
      "outputs": [
        {
          "internalType": "uint256",
          "name": "",
          "type": "uint256"
        }
      ],
      "payable": true,
      "stateMutability": "payable",
      "type": "function"
    }
  ],
  "bytecode": "0x608060405234801561001057600080fd5b50336000806101000a81548173ffffffffffffffffffffffffffffffffffffffff021916908373ffffffffffffffffffffffffffffffffffffffff1602179055506115c1806100606000396000f3fe6080604052600436106100dd5760003560e01c806349ae50a81161007f578063b5aacf3d11610059578063b5aacf3d146104f3578063bbc385991461051e578063bd4f3b8314610560578063da69fd3e146105b1576100dd565b806349ae50a814610371578063668c147a146103ec578063725246cb14610487576100dd565b806320598f6a116100bb57806320598f6a146101fc5780632aaf9c661461022b578063421145b5146102a657806347821e3d14610336576100dd565b80630ac298dc146100e25780631cbc3677146101395780631ec097c6146101a5575b600080fd5b3480156100ee57600080fd5b506100f7610600565b604051808273ffffffffffffffffffffffffffffffffffffffff1673ffffffffffffffffffffffffffffffffffffffff16815260200191505060405180910390f35b34801561014557600080fd5b5061014e610629565b6040518080602001828103825283818151815260200191508051906020019060200280838360005b83811015610191578082015181840152602081019050610176565b505050509050019250505060405180910390f35b3480156101b157600080fd5b506101ba6106b7565b604051808273ffffffffffffffffffffffffffffffffffffffff1673ffffffffffffffffffffffffffffffffffffffff16815260200191505060405180910390f35b34801561020857600080fd5b506102116106e1565b604051808215151515815260200191505060405180910390f35b34801561023757600080fd5b506102646004803603602081101561024e57600080fd5b8101908080359060200190929190505050610821565b604051808273ffffffffffffffffffffffffffffffffffffffff1673ffffffffffffffffffffffffffffffffffffffff16815260200191505060405180910390f35b3480156102b257600080fd5b506102df600480360360208110156102c957600080fd5b810190808035906020019092919050505061085d565b6040518080602001828103825283818151815260200191508051906020019060200280838360005b83811015610322578082015181840152602081019050610307565b505050509050019250505060405180910390f35b34801561034257600080fd5b5061036f6004803603602081101561035957600080fd5b8101908080359060200190929190505050610bf9565b005b34801561037d57600080fd5b506103aa6004803603602081101561039457600080fd5b8101908080359060200190929190505050610d35565b604051808273ffffffffffffffffffffffffffffffffffffffff1673ffffffffffffffffffffffffffffffffffffffff16815260200191505060405180910390f35b6104226004803603604081101561040257600080fd5b810190808035906020019092919080359060200190929190505050610d71565b6040518084815260200183815260200180602001828103825283818151815260200191508051906020019060200280838360005b83811015610471578082015181840152602081019050610456565b5050505090500194505050505060405180910390f35b34801561049357600080fd5b5061049c6111b7565b6040518080602001828103825283818151815260200191508051906020019060200280838360005b838110156104df5780820151818401526020810190506104c4565b505050509050019250505060405180910390f35b3480156104ff57600080fd5b50610508611245565b6040518082815260200191505060405180910390f35b61054a6004803603602081101561053457600080fd5b81019080803590602001909291905050506112ef565b6040518082815260200191505060405180910390f35b34801561056c57600080fd5b506105af6004803603602081101561058357600080fd5b81019080803573ffffffffffffffffffffffffffffffffffffffff169060200190929190505050611508565b005b3480156105bd57600080fd5b506105fe600480360360608110156105d457600080fd5b8101908080359060200190929190803590602001909291908035906020019092919050505061154c565b005b60008060009054906101000a900473ffffffffffffffffffffffffffffffffffffffff16905090565b606060028054806020026020016040519081016040528092919081815260200182805480156106ad57602002820191906000526020600020905b8160009054906101000a900473ffffffffffffffffffffffffffffffffffffffff1673ffffffffffffffffffffffffffffffffffffffff1681526020019060010190808311610663575b5050505050905090565b6000600160009054906101000a900473ffffffffffffffffffffffffffffffffffffffff16905090565b6000806001905060008090505b6002805490508110156108195760016002805490500381141580156108025750600860006002600184018154811061072257fe5b9060005260206000200160009054906101000a900473ffffffffffffffffffffffffffffffffffffffff1673ffffffffffffffffffffffffffffffffffffffff1673ffffffffffffffffffffffffffffffffffffffff16815260200190815260200160002054600860006002848154811061079957fe5b9060005260206000200160009054906101000a900473ffffffffffffffffffffffffffffffffffffffff1673ffffffffffffffffffffffffffffffffffffffff1673ffffffffffffffffffffffffffffffffffffffff1681526020019081526020016000205414155b1561080c57600091505b80806001019150506106ee565b508091505090565b6002818154811061082e57fe5b906000526020600020016000915054906101000a900473ffffffffffffffffffffffffffffffffffffffff1681565b6060600160009054906101000a900473ffffffffffffffffffffffffffffffffffffffff1673ffffffffffffffffffffffffffffffffffffffff163373ffffffffffffffffffffffffffffffffffffffff1614610905576040517f08c379a00000000000000000000000000000000000000000000000000000000081526004018080602001828103825260268152602001806115676026913960400191505060405180910390fd5b600061090f6106e1565b905061091a83610bf9565b8015610a375760008090505b600280549050811015610a3157600760006002838154811061094457fe5b9060005260206000200160009054906101000a900473ffffffffffffffffffffffffffffffffffffffff1673ffffffffffffffffffffffffffffffffffffffff1673ffffffffffffffffffffffffffffffffffffffff1681526020019081526020016000205460096000600284815481106109bb57fe5b9060005260206000200160009054906101000a900473ffffffffffffffffffffffffffffffffffffffff1673ffffffffffffffffffffffffffffffffffffffff1673ffffffffffffffffffffffffffffffffffffffff168152602001908152602001600020819055508080600101915050610926565b50610b6a565b6000610a41611245565b905060006003805490501415610abc578060096000600160009054906101000a900473ffffffffffffffffffffffffffffffffffffffff1673ffffffffffffffffffffffffffffffffffffffff1673ffffffffffffffffffffffffffffffffffffffff16815260200190815260200160002081905550610b68565b6000600380549050905060008090505b81811015610b6557818381610add57fe5b046009600060038481548110610aef57fe5b9060005260206000200160009054906101000a900473ffffffffffffffffffffffffffffffffffffffff1673ffffffffffffffffffffffffffffffffffffffff1673ffffffffffffffffffffffffffffffffffffffff168152602001908152602001600020819055508080600101915050610acc565b50505b505b6003805480602002602001604051908101604052809291908181526020018280548015610bec57602002820191906000526020600020905b8160009054906101000a900473ffffffffffffffffffffffffffffffffffffffff1673ffffffffffffffffffffffffffffffffffffffff1681526020019060010190808311610ba2575b5050505050915050919050565b600080905060008090505b600280549050811015610d3057826008600060028481548110610c2357fe5b9060005260206000200160009054906101000a900473ffffffffffffffffffffffffffffffffffffffff1673ffffffffffffffffffffffffffffffffffffffff1673ffffffffffffffffffffffffffffffffffffffff168152602001908152602001600020541415610d235760028181548110610c9c57fe5b9060005260206000200160009054906101000a900473ffffffffffffffffffffffffffffffffffffffff1660038380600101945081548110610cda57fe5b9060005260206000200160006101000a81548173ffffffffffffffffffffffffffffffffffffffff021916908373ffffffffffffffffffffffffffffffffffffffff1602179055505b8080600101915050610c04565b505050565b60038181548110610d4257fe5b906000526020600020016000915054906101000a900473ffffffffffffffffffffffffffffffffffffffff1681565b60008060606000809054906101000a900473ffffffffffffffffffffffffffffffffffffffff1673ffffffffffffffffffffffffffffffffffffffff163373ffffffffffffffffffffffffffffffffffffffff161415610e39576040517f08c379a00000000000000000000000000000000000000000000000000000000081526004018080602001828103825260138152602001807f4f776e65722063616e6e6f742067616d626c650000000000000000000000000081525060200191505060405180910390fd5b600160009054906101000a900473ffffffffffffffffffffffffffffffffffffffff1673ffffffffffffffffffffffffffffffffffffffff163373ffffffffffffffffffffffffffffffffffffffff161415610efd576040517f08c379a00000000000000000000000000000000000000000000000000000000081526004018080602001828103825260148152602001807f4f7261636c652063616e6e6f742067616d626c6500000000000000000000000081525060200191505060405180910390fd5b6000600760003373ffffffffffffffffffffffffffffffffffffffff1673ffffffffffffffffffffffffffffffffffffffff1681526020019081526020016000205414610fb2576040517f08c379a000000000000000000000000000000000000000000000000000000000815260040180806020018281038252601f8152602001807f596f75206861766520616c726561647920706c6176636564206120626574210081525060200191505060405180910390fd5b83600760003373ffffffffffffffffffffffffffffffffffffffff1673ffffffffffffffffffffffffffffffffffffffff1681526020019081526020016000208190555084600860003373ffffffffffffffffffffffffffffffffffffffff1673ffffffffffffffffffffffffffffffffffffffff1681526020019081526020016000208190555060023390806001815401808255809150509060018203906000526020600020016000909192909190916101000a81548173ffffffffffffffffffffffffffffffffffffffff021916908373ffffffffffffffffffffffffffffffffffffffff16021790555050600760003373ffffffffffffffffffffffffffffffffffffffff1673ffffffffffffffffffffffffffffffffffffffff16815260200190815260200160002054600860003373ffffffffffffffffffffffffffffffffffffffff1673ffffffffffffffffffffffffffffffffffffffff168152602001908152602001600020546002808054806020026020016040519081016040528092919081815260200182805480156111a357602002820191906000526020600020905b8160009054906101000a900473ffffffffffffffffffffffffffffffffffffffff1673ffffffffffffffffffffffffffffffffffffffff1681526020019060010190808311611159575b505050505090509250925092509250925092565b6060600380548060200260200160405190810160405280929190818152602001828054801561123b57602002820191906000526020600020905b8160009054906101000a900473ffffffffffffffffffffffffffffffffffffffff1673ffffffffffffffffffffffffffffffffffffffff16815260200190600101908083116111f1575b5050505050905090565b6000806000905060008090505b6002805490508110156112e757600760006002838154811061127057fe5b9060005260206000200160009054906101000a900473ffffffffffffffffffffffffffffffffffffffff1673ffffffffffffffffffffffffffffffffffffffff1673ffffffffffffffffffffffffffffffffffffffff16815260200190815260200160002054820191508080600101915050611252565b508091505090565b600080600960003373ffffffffffffffffffffffffffffffffffffffff1673ffffffffffffffffffffffffffffffffffffffff1681526020019081526020016000205414156113a6576040517f08c379a000000000000000000000000000000000000000000000000000000000815260040180806020018281038252601e8152602001807f596f7520617265206e6f74207468652077696e6e65722c20736f72727921000081525060200191505060405180910390fd5b81600960003373ffffffffffffffffffffffffffffffffffffffff1673ffffffffffffffffffffffffffffffffffffffff16815260200190815260200160002054106114c15781600960003373ffffffffffffffffffffffffffffffffffffffff1673ffffffffffffffffffffffffffffffffffffffff168152602001908152602001600020600082825403925050819055503373ffffffffffffffffffffffffffffffffffffffff166108fc839081150290604051600060405180830381858888f193505050506114c05781600960003373ffffffffffffffffffffffffffffffffffffffff1673ffffffffffffffffffffffffffffffffffffffff168152602001908152602001600020600082825403925050819055505b5b600960003373ffffffffffffffffffffffffffffffffffffffff1673ffffffffffffffffffffffffffffffffffffffff168152602001908152602001600020549050919050565b80600160006101000a81548173ffffffffffffffffffffffffffffffffffffffff021916908373ffffffffffffffffffffffffffffffffffffffff16021790555050565b82600481905550816005819055508060068190555050505056fe4f6e6c7920746865206f7261636c652063616e2064656369646520746865206f7574636f6d65a265627a7a72315820e3e1818c109fd6e5bb9632eaaaee23bfd7e6bbdee4c8f1026a3df0256f7379c464736f6c634300050c0032",
  "source": "pragma solidity ^0.5.11;\n\n//import \"../contracts/strings.sol\";\n\ncontract Betting {\n    address contract_owner;\n    address event_oracle;\n    address[] public gamblers;\n    address[] public list_of_winners;\n\n    uint outcome_1;\n    uint outcome_2;\n    uint outcome_3;\n\n    mapping(address => uint) private map_addr_bet_amnt;\n    mapping(address => uint) private map_addr_bet_outc;\n    mapping(address => uint) private map_addr_bet_win_amt;\n\n\n    constructor() public\n    {\n        //the contract owner is set.\n        contract_owner = msg.sender;\n    }\n\n    function set_oracle(address input) public{\n        event_oracle = input;\n    }\n\n    function get_oracle() public view returns (address){\n        return event_oracle;\n    }\n\n    function get_owner() public view returns (address){\n        return contract_owner;\n    }\n\n    function get_gamblers_list() public view returns (address[] memory){\n        return gamblers;\n    }\n\n    function set_outcomes(uint inp1, uint inp2, uint inp3) public{\n        outcome_1 = inp1;\n        outcome_2 = inp2;\n        outcome_3 = inp3;\n    }\n\n    // event bet(\n    //     address indexed _from,\n    //     uint _value,\n    //     uint bet_value\n    // );\n\n    function make_a_bet(uint expected_outcome, uint bet_amount) public payable returns (uint,uint,address[] memory)\n    {\n        //validation starts\n        //should not be an owner\n        require(msg.sender!=contract_owner, \"Owner cannot gamble\");\n        //should not be an oracle\n        require(msg.sender!=event_oracle, \"Oracle cannot gamble\");\n        //should not have placed a bet before\n        require(map_addr_bet_amnt[msg.sender]==0, \"You have already plavced a bet!\");\n        //validation ends\n\n        //make a bet\n        map_addr_bet_amnt[msg.sender] = bet_amount;\n        map_addr_bet_outc[msg.sender] = expected_outcome;\n\n        //update variables\n        gamblers.push(msg.sender);\n\n        //emit an event to the blockchain\n        // emit bet(msg.sender, amount, expected_outcome);\n\n        return (map_addr_bet_amnt[msg.sender],map_addr_bet_outc[msg.sender],gamblers);\n\n    }\n\n    function decide_winners(uint correct_outcome) public{\n\n        uint j = 0;\n\n        //calculate if we have a same bet and also, decide the list of winners.\n        for (uint i = 0; i<gamblers.length; i++)\n        {\n            if(map_addr_bet_outc[gamblers[i]]==correct_outcome)\n            {\n                list_of_winners[j++] = gamblers[i];\n            }\n        }\n\n    }\n\n\n    function get_winners_list() public view returns (address[] memory){\n        return list_of_winners;\n    }\n\n    function same_bet() public view returns(bool){\n        bool same_bet_bool = true;\n        for (uint i = 0; i<gamblers.length; i++)\n        {\n            if(i!=gamblers.length-1 && map_addr_bet_outc[gamblers[i]] != map_addr_bet_outc[gamblers[i+1]])\n            {\n                same_bet_bool = false;\n            }\n        }\n        return same_bet_bool;\n    }\n\n    function decide_the_outcome(uint correct_outcome) public returns(address[] memory){\n        //validation starts\n\n        //validate that all the gamblers have bet\n\n        //validate that you are the oracle\n        require(msg.sender==event_oracle, \"Only the oracle can decide the outcome\");\n\n        //validation ends\n\n        //check if everyone has the same bet\n\n        bool same_bet_bool = same_bet();\n        decide_winners(correct_outcome);\n\n        if(same_bet_bool)\n        {\n            //reimburse all the money\n            for (uint i = 0; i<gamblers.length; i++)\n            {\n                map_addr_bet_win_amt[gamblers[i]] = map_addr_bet_amnt[gamblers[i]];\n            }\n            //emit event : everyone bet on the same thing, not possible. take your money back\n        }\n        else\n        {\n            uint total_bet_amount = get_total_bet_amount();\n            if(list_of_winners.length==0)\n            {\n                //emit event: no one had good luck. all the money goes to the oracle who decided the outcome\n                map_addr_bet_win_amt[event_oracle] = total_bet_amount;\n\n            }\n            else\n            {\n                //emit event: the winners have been decided, you can request to withdraw to see if you have won.\n                //give the amount on the basis of fair division.\n                uint num_of_winners = list_of_winners.length;\n                for(uint i = 0;i<num_of_winners;i++)\n                {\n                    map_addr_bet_win_amt[list_of_winners[i]] = total_bet_amount/num_of_winners; //need to make changes for uneven division.\n                }\n            }\n        }\n\n        return list_of_winners;\n    }\n\n    function get_total_bet_amount() public view returns (uint){\n\n        //iterate over all the gamblers and get the total amount invested.\n        uint total_amount = 0;\n\n        for (uint i = 0; i<gamblers.length; i++)\n            total_amount += map_addr_bet_amnt[gamblers[i]];\n\n        return total_amount;\n    }\n    /**\n     This function allows the winners to withdraw their winning amount from the contract.\n     */\n    function take_my_winning_amount(uint amount) public payable returns (uint){\n        //validation starts\n        //withdrawer should be a winner\n        require(map_addr_bet_win_amt[msg.sender]!=0, \"You are not the winner, sorry!\");\n\n        if(map_addr_bet_win_amt[msg.sender] >= amount)\n        {\n            map_addr_bet_win_amt[msg.sender] -= amount;\n\n            if(!msg.sender.send(amount))\n            {\n                map_addr_bet_win_amt[msg.sender] -= amount;\n            }\n        }\n        return map_addr_bet_win_amt[msg.sender];\n    }\n}",
  "sourcePath": "/media/ravi/Local Disk/ubuntu/bab_decal_spring_2018/Lab_Tasks/Lab_2/contracts/Betting.sol",
  "compiler": {
    "name": "solc",
    "version": "0.5.12+commit.7709ece9.Emscripten.clang"
  },
  "schemaVersion": "3.0.18",
  "updatedAt": "2019-11-22T03:01:25.834Z",
  "networkType": "ethereum",
  "devdoc": {
    "methods": {}
  },
  "userdoc": {
    "methods": {
      "take_my_winning_amount(uint256)": {
        "notice": "This function allows the winners to withdraw their winning amount from the contract."
      }
    }
  }
}