{
  "contractName": "Betting",
  "abi": [
    {
      "inputs": [],
      "payable": false,
      "stateMutability": "nonpayable",
      "type": "constructor"
    },
    {
      "anonymous": false,
      "inputs": [
        {
          "indexed": true,
          "internalType": "address",
          "name": "_from",
          "type": "address"
        },
        {
          "indexed": false,
          "internalType": "uint256",
          "name": "_value",
          "type": "uint256"
        },
        {
          "indexed": false,
          "internalType": "string",
          "name": "msg",
          "type": "string"
        },
        {
          "indexed": false,
          "internalType": "uint256",
          "name": "bet_value",
          "type": "uint256"
        }
      ],
      "name": "bet",
      "type": "event"
    },
    {
      "anonymous": false,
      "inputs": [
        {
          "indexed": false,
          "internalType": "string",
          "name": "common_msg",
          "type": "string"
        }
      ],
      "name": "common_event_msg",
      "type": "event"
    },
    {
      "anonymous": false,
      "inputs": [
        {
          "indexed": true,
          "internalType": "address",
          "name": "_from",
          "type": "address"
        },
        {
          "indexed": false,
          "internalType": "string",
          "name": "_value",
          "type": "string"
        },
        {
          "indexed": false,
          "internalType": "address",
          "name": "contract_address",
          "type": "address"
        }
      ],
      "name": "owner_oracle_set_broadcast",
      "type": "event"
    },
    {
      "anonymous": false,
      "inputs": [
        {
          "indexed": true,
          "internalType": "address",
          "name": "_from",
          "type": "address"
        },
        {
          "indexed": false,
          "internalType": "uint256[]",
          "name": "_value",
          "type": "uint256[]"
        },
        {
          "indexed": false,
          "internalType": "string",
          "name": "msg",
          "type": "string"
        }
      ],
      "name": "possible_outcomes_broadcast",
      "type": "event"
    },
    {
      "constant": true,
      "inputs": [
        {
          "internalType": "uint256",
          "name": "",
          "type": "uint256"
        }
      ],
      "name": "gamblers",
      "outputs": [
        {
          "internalType": "address",
          "name": "",
          "type": "address"
        }
      ],
      "payable": false,
      "stateMutability": "view",
      "type": "function"
    },
    {
      "constant": true,
      "inputs": [
        {
          "internalType": "uint256",
          "name": "",
          "type": "uint256"
        }
      ],
      "name": "list_of_winners",
      "outputs": [
        {
          "internalType": "address",
          "name": "",
          "type": "address"
        }
      ],
      "payable": false,
      "stateMutability": "view",
      "type": "function"
    },
    {
      "constant": false,
      "inputs": [
        {
          "internalType": "address",
          "name": "input",
          "type": "address"
        }
      ],
      "name": "set_oracle",
      "outputs": [],
      "payable": false,
      "stateMutability": "nonpayable",
      "type": "function"
    },
    {
      "constant": true,
      "inputs": [],
      "name": "get_gamblers_list",
      "outputs": [
        {
          "internalType": "address[]",
          "name": "",
          "type": "address[]"
        }
      ],
      "payable": false,
      "stateMutability": "view",
      "type": "function"
    },
    {
      "constant": false,
      "inputs": [
        {
          "internalType": "uint256[]",
          "name": "outcomes",
          "type": "uint256[]"
        }
      ],
      "name": "set_outcomes",
      "outputs": [],
      "payable": false,
      "stateMutability": "nonpayable",
      "type": "function"
    },
    {
      "constant": false,
      "inputs": [
        {
          "internalType": "uint256",
          "name": "expected_outcome",
          "type": "uint256"
        }
      ],
      "name": "make_a_bet",
      "outputs": [
        {
          "internalType": "uint256",
          "name": "",
          "type": "uint256"
        },
        {
          "internalType": "uint256",
          "name": "",
          "type": "uint256"
        },
        {
          "internalType": "address[]",
          "name": "",
          "type": "address[]"
        }
      ],
      "payable": true,
      "stateMutability": "payable",
      "type": "function"
    },
    {
      "constant": false,
      "inputs": [
        {
          "internalType": "uint256",
          "name": "correct_outcome",
          "type": "uint256"
        }
      ],
      "name": "decide_winners",
      "outputs": [],
      "payable": false,
      "stateMutability": "nonpayable",
      "type": "function"
    },
    {
      "constant": true,
      "inputs": [],
      "name": "get_winners_list",
      "outputs": [
        {
          "internalType": "address[]",
          "name": "",
          "type": "address[]"
        }
      ],
      "payable": false,
      "stateMutability": "view",
      "type": "function"
    },
    {
      "constant": true,
      "inputs": [],
      "name": "is_the_bet_same",
      "outputs": [
        {
          "internalType": "bool",
          "name": "",
          "type": "bool"
        }
      ],
      "payable": false,
      "stateMutability": "view",
      "type": "function"
    },
    {
      "constant": false,
      "inputs": [
        {
          "internalType": "uint256",
          "name": "correct_outcome",
          "type": "uint256"
        }
      ],
      "name": "decide_the_outcome",
      "outputs": [
        {
          "internalType": "address[]",
          "name": "",
          "type": "address[]"
        }
      ],
      "payable": false,
      "stateMutability": "nonpayable",
      "type": "function"
    },
    {
      "constant": true,
      "inputs": [],
      "name": "get_total_bet_amount",
      "outputs": [
        {
          "internalType": "uint256",
          "name": "",
          "type": "uint256"
        }
      ],
      "payable": false,
      "stateMutability": "view",
      "type": "function"
    },
    {
      "constant": false,
      "inputs": [
        {
          "internalType": "uint256",
          "name": "amount",
          "type": "uint256"
        }
      ],
      "name": "take_my_winning_amount",
      "outputs": [
        {
          "internalType": "uint256",
          "name": "",
          "type": "uint256"
        }
      ],
      "payable": true,
      "stateMutability": "payable",
      "type": "function"
    }
  ],
  "bytecode": "0x60806040526000600560006101000a81548160ff02191690831515021790555034801561002b57600080fd5b50336000806101000a81548173ffffffffffffffffffffffffffffffffffffffff021916908373ffffffffffffffffffffffffffffffffffffffff1602179055503373ffffffffffffffffffffffffffffffffffffffff167f4eabf15cf76dca385a70dac4bcad62525dcb5938dd342cc9b505ec36c5bb005a3060405180806020018373ffffffffffffffffffffffffffffffffffffffff1673ffffffffffffffffffffffffffffffffffffffff168152602001828103825260108152602001807f4f776e657220697320736574206e6f77000000000000000000000000000000008152506020019250505060405180910390a2611d7a8061012e6000396000f3fe6080604052600436106100a75760003560e01c806373d6c9761161006457806373d6c976146103455780639d1c11a31461040a578063b5aacf3d1461049b578063bbc38599146104c6578063bd4f3b8314610508578063bdb778ac14610559576100a7565b80631cbc3677146100ac5780632aaf9c6614610118578063421145b51461019357806347821e3d1461022357806349ae50a81461025e578063725246cb146102d9575b600080fd5b3480156100b857600080fd5b506100c1610588565b6040518080602001828103825283818151815260200191508051906020019060200280838360005b838110156101045780820151818401526020810190506100e9565b505050509050019250505060405180910390f35b34801561012457600080fd5b506101516004803603602081101561013b57600080fd5b8101908080359060200190929190505050610616565b604051808273ffffffffffffffffffffffffffffffffffffffff1673ffffffffffffffffffffffffffffffffffffffff16815260200191505060405180910390f35b34801561019f57600080fd5b506101cc600480360360208110156101b657600080fd5b8101908080359060200190929190505050610652565b6040518080602001828103825283818151815260200191508051906020019060200280838360005b8381101561020f5780820151818401526020810190506101f4565b505050509050019250505060405180910390f35b34801561022f57600080fd5b5061025c6004803603602081101561024657600080fd5b8101908080359060200190929190505050610bd2565b005b34801561026a57600080fd5b506102976004803603602081101561028157600080fd5b8101908080359060200190929190505050610d12565b604051808273ffffffffffffffffffffffffffffffffffffffff1673ffffffffffffffffffffffffffffffffffffffff16815260200191505060405180910390f35b3480156102e557600080fd5b506102ee610d4e565b6040518080602001828103825283818151815260200191508051906020019060200280838360005b83811015610331578082015181840152602081019050610316565b505050509050019250505060405180910390f35b34801561035157600080fd5b506104086004803603602081101561036857600080fd5b810190808035906020019064010000000081111561038557600080fd5b82018360208201111561039757600080fd5b803590602001918460208302840111640100000000831117156103b957600080fd5b919080806020026020016040519081016040528093929190818152602001838360200280828437600081840152601f19601f820116905080830192505050505050509192919290505050610ddc565b005b6104366004803603602081101561042057600080fd5b8101908080359060200190929190505050610f61565b6040518084815260200183815260200180602001828103825283818151815260200191508051906020019060200280838360005b8381101561048557808201518184015260208101905061046a565b5050505090500194505050505060405180910390f35b3480156104a757600080fd5b506104b0611554565b6040518082815260200191505060405180910390f35b6104f2600480360360208110156104dc57600080fd5b81019080803590602001909291905050506115fe565b6040518082815260200191505060405180910390f35b34801561051457600080fd5b506105576004803603602081101561052b57600080fd5b81019080803573ffffffffffffffffffffffffffffffffffffffff169060200190929190505050611885565b005b34801561056557600080fd5b5061056e611a62565b604051808215151515815260200191505060405180910390f35b6060600280548060200260200160405190810160405280929190818152602001828054801561060c57602002820191906000526020600020905b8160009054906101000a900473ffffffffffffffffffffffffffffffffffffffff1673ffffffffffffffffffffffffffffffffffffffff16815260200190600101908083116105c2575b5050505050905090565b6002818154811061062357fe5b906000526020600020016000915054906101000a900473ffffffffffffffffffffffffffffffffffffffff1681565b606060028080549050146106b1576040517f08c379a000000000000000000000000000000000000000000000000000000000815260040180806020018281038252602f815260200180611d17602f913960400191505060405180910390fd5b600160009054906101000a900473ffffffffffffffffffffffffffffffffffffffff1673ffffffffffffffffffffffffffffffffffffffff163373ffffffffffffffffffffffffffffffffffffffff1614610757576040517f08c379a0000000000000000000000000000000000000000000000000000000008152600401808060200182810382526026815260200180611cf16026913960400191505060405180910390fd5b60001515600560009054906101000a900460ff161515146107e0576040517f08c379a00000000000000000000000000000000000000000000000000000000081526004018080602001828103825260158152602001807f42657474696e6720697320636c6f736564206e6f77000000000000000000000081525060200191505060405180910390fd5b60006107ea611a62565b905080156109545760008090505b60028054905081101561090357600660006002838154811061081657fe5b9060005260206000200160009054906101000a900473ffffffffffffffffffffffffffffffffffffffff1673ffffffffffffffffffffffffffffffffffffffff1673ffffffffffffffffffffffffffffffffffffffff16815260200190815260200160002054600860006002848154811061088d57fe5b9060005260206000200160009054906101000a900473ffffffffffffffffffffffffffffffffffffffff1673ffffffffffffffffffffffffffffffffffffffff1673ffffffffffffffffffffffffffffffffffffffff1681526020019081526020016000208190555080806001019150506107f8565b507fe22e8a46c3300c69e942e3c311137c14b95a2c094d8178060ea8ddc81a75d4e1604051808060200182810382526035815260200180611c906035913960400191505060405180910390a1610b43565b61095d83610bd2565b6000610967611554565b905060006003805490501415610a4a577fe22e8a46c3300c69e942e3c311137c14b95a2c094d8178060ea8ddc81a75d4e160405180806020018281038252601b8152602001807f4e6f206f6e652077696e732062757420746865206f7261636c652e000000000081525060200191505060405180910390a18060086000600160009054906101000a900473ffffffffffffffffffffffffffffffffffffffff1673ffffffffffffffffffffffffffffffffffffffff1673ffffffffffffffffffffffffffffffffffffffff16815260200190815260200160002081905550610b41565b7fe22e8a46c3300c69e942e3c311137c14b95a2c094d8178060ea8ddc81a75d4e160405180806020018281038252604f815260200180611c41604f913960600191505060405180910390a16000600380549050905060008090505b81811015610b3e57818381610ab657fe5b046008600060038481548110610ac857fe5b9060005260206000200160009054906101000a900473ffffffffffffffffffffffffffffffffffffffff1673ffffffffffffffffffffffffffffffffffffffff1673ffffffffffffffffffffffffffffffffffffffff168152602001908152602001600020819055508080600101915050610aa5565b50505b505b6003805480602002602001604051908101604052809291908181526020018280548015610bc557602002820191906000526020600020905b8160009054906101000a900473ffffffffffffffffffffffffffffffffffffffff1673ffffffffffffffffffffffffffffffffffffffff1681526020019060010190808311610b7b575b5050505050915050919050565b60008090505b600280549050811015610d0e57816007600060028481548110610bf757fe5b9060005260206000200160009054906101000a900473ffffffffffffffffffffffffffffffffffffffff1673ffffffffffffffffffffffffffffffffffffffff1673ffffffffffffffffffffffffffffffffffffffff168152602001908152602001600020541415610d0157600360028281548110610c7257fe5b9060005260206000200160009054906101000a900473ffffffffffffffffffffffffffffffffffffffff1690806001815401808255809150509060018203906000526020600020016000909192909190916101000a81548173ffffffffffffffffffffffffffffffffffffffff021916908373ffffffffffffffffffffffffffffffffffffffff160217905550505b8080600101915050610bd8565b5050565b60038181548110610d1f57fe5b906000526020600020016000915054906101000a900473ffffffffffffffffffffffffffffffffffffffff1681565b60606003805480602002602001604051908101604052809291908181526020018280548015610dd257602002820191906000526020600020905b8160009054906101000a900473ffffffffffffffffffffffffffffffffffffffff1673ffffffffffffffffffffffffffffffffffffffff1681526020019060010190808311610d88575b5050505050905090565b6000809054906101000a900473ffffffffffffffffffffffffffffffffffffffff1673ffffffffffffffffffffffffffffffffffffffff163373ffffffffffffffffffffffffffffffffffffffff1614610e81576040517f08c379a000000000000000000000000000000000000000000000000000000000815260040180806020018281038252602c815260200180611cc5602c913960400191505060405180910390fd5b8060049080519060200190610e97929190611ba2565b503373ffffffffffffffffffffffffffffffffffffffff167f6f6e252b6b8537fed84ee53095626cf7e89d54360303b46a11abbea3c0fbb6b960046040518080602001806020018381038352848181548152602001915080548015610f1b57602002820191906000526020600020905b815481526020019060010190808311610f07575b50508381038252601a8152602001807f546865206f7574636f6d65732068617665206265656e20736574000000000000815250602001935050505060405180910390a250565b6000806060600073ffffffffffffffffffffffffffffffffffffffff16600160009054906101000a900473ffffffffffffffffffffffffffffffffffffffff1673ffffffffffffffffffffffffffffffffffffffff16141561100e576040517f08c379a000000000000000000000000000000000000000000000000000000000815260040180806020018281038252602c815260200180611c15602c913960400191505060405180910390fd5b6000809054906101000a900473ffffffffffffffffffffffffffffffffffffffff1673ffffffffffffffffffffffffffffffffffffffff163373ffffffffffffffffffffffffffffffffffffffff1614156110d1576040517f08c379a00000000000000000000000000000000000000000000000000000000081526004018080602001828103825260138152602001807f4f776e65722063616e6e6f742067616d626c650000000000000000000000000081525060200191505060405180910390fd5b600160009054906101000a900473ffffffffffffffffffffffffffffffffffffffff1673ffffffffffffffffffffffffffffffffffffffff163373ffffffffffffffffffffffffffffffffffffffff161415611195576040517f08c379a00000000000000000000000000000000000000000000000000000000081526004018080602001828103825260148152602001807f4f7261636c652063616e6e6f742067616d626c6500000000000000000000000081525060200191505060405180910390fd5b6000600660003373ffffffffffffffffffffffffffffffffffffffff1673ffffffffffffffffffffffffffffffffffffffff168152602001908152602001600020541461124a576040517f08c379a000000000000000000000000000000000000000000000000000000000815260040180806020018281038252601f8152602001807f596f75206861766520616c726561647920706c6176636564206120626574210081525060200191505060405180910390fd5b600034116112c0576040517f08c379a00000000000000000000000000000000000000000000000000000000081526004018080602001828103825260188152602001807f506c65617365207370656369667920616e20616d6f756e74000000000000000081525060200191505060405180910390fd5b34600660003373ffffffffffffffffffffffffffffffffffffffff1673ffffffffffffffffffffffffffffffffffffffff1681526020019081526020016000208190555083600760003373ffffffffffffffffffffffffffffffffffffffff1673ffffffffffffffffffffffffffffffffffffffff1681526020019081526020016000208190555060023390806001815401808255809150509060018203906000526020600020016000909192909190916101000a81548173ffffffffffffffffffffffffffffffffffffffff021916908373ffffffffffffffffffffffffffffffffffffffff160217905550503373ffffffffffffffffffffffffffffffffffffffff167fd436d4dc8a26ed2da2c5bbac87b8fcde9ef04023daca4700ad0cc39d2b3a03da34866040518083815260200180602001838152602001828103825260138152602001807f412062657420776173206a757374206d61646500000000000000000000000000815250602001935050505060405180910390a2600660003373ffffffffffffffffffffffffffffffffffffffff1673ffffffffffffffffffffffffffffffffffffffff16815260200190815260200160002054600760003373ffffffffffffffffffffffffffffffffffffffff1673ffffffffffffffffffffffffffffffffffffffff1681526020019081526020016000205460028080548060200260200160405190810160405280929190818152602001828054801561154057602002820191906000526020600020905b8160009054906101000a900473ffffffffffffffffffffffffffffffffffffffff1673ffffffffffffffffffffffffffffffffffffffff16815260200190600101908083116114f6575b505050505090509250925092509193909250565b6000806000905060008090505b6002805490508110156115f657600660006002838154811061157f57fe5b9060005260206000200160009054906101000a900473ffffffffffffffffffffffffffffffffffffffff1673ffffffffffffffffffffffffffffffffffffffff1673ffffffffffffffffffffffffffffffffffffffff16815260200190815260200160002054820191508080600101915050611561565b508091505090565b600080600860003373ffffffffffffffffffffffffffffffffffffffff1673ffffffffffffffffffffffffffffffffffffffff1681526020019081526020016000205414156116b5576040517f08c379a000000000000000000000000000000000000000000000000000000000815260040180806020018281038252601e8152602001807f596f7520617265206e6f74207468652077696e6e65722c20736f72727921000081525060200191505060405180910390fd5b81600860003373ffffffffffffffffffffffffffffffffffffffff1673ffffffffffffffffffffffffffffffffffffffff16815260200190815260200160002054101561176a576040517f08c379a000000000000000000000000000000000000000000000000000000000815260040180806020018281038252601e8152602001807f596f7520686176652077697468647261776e20796f757220616d6f756e74000081525060200191505060405180910390fd5b81600860003373ffffffffffffffffffffffffffffffffffffffff1673ffffffffffffffffffffffffffffffffffffffff168152602001908152602001600020600082825403925050819055503373ffffffffffffffffffffffffffffffffffffffff166108fc839081150290604051600060405180830381858888f1935050505061183e5781600860003373ffffffffffffffffffffffffffffffffffffffff1673ffffffffffffffffffffffffffffffffffffffff168152602001908152602001600020600082825401925050819055505b600860003373ffffffffffffffffffffffffffffffffffffffff1673ffffffffffffffffffffffffffffffffffffffff168152602001908152602001600020549050919050565b600073ffffffffffffffffffffffffffffffffffffffff16600160009054906101000a900473ffffffffffffffffffffffffffffffffffffffff1673ffffffffffffffffffffffffffffffffffffffff1614611949576040517f08c379a00000000000000000000000000000000000000000000000000000000081526004018080602001828103825260168152602001807f4f7261636c652063616e6e6f742062652072657365740000000000000000000081525060200191505060405180910390fd5b80600160006101000a81548173ffffffffffffffffffffffffffffffffffffffff021916908373ffffffffffffffffffffffffffffffffffffffff160217905550600160009054906101000a900473ffffffffffffffffffffffffffffffffffffffff1673ffffffffffffffffffffffffffffffffffffffff167f4eabf15cf76dca385a70dac4bcad62525dcb5938dd342cc9b505ec36c5bb005a3060405180806020018373ffffffffffffffffffffffffffffffffffffffff1673ffffffffffffffffffffffffffffffffffffffff168152602001828103825260118152602001807f4f7261636c6520697320736574206e6f770000000000000000000000000000008152506020019250505060405180910390a250565b6000806001905060008090505b600280549050811015611b9a576001600280549050038114158015611b8357506007600060026001840181548110611aa357fe5b9060005260206000200160009054906101000a900473ffffffffffffffffffffffffffffffffffffffff1673ffffffffffffffffffffffffffffffffffffffff1673ffffffffffffffffffffffffffffffffffffffff168152602001908152602001600020546007600060028481548110611b1a57fe5b9060005260206000200160009054906101000a900473ffffffffffffffffffffffffffffffffffffffff1673ffffffffffffffffffffffffffffffffffffffff1673ffffffffffffffffffffffffffffffffffffffff1681526020019081526020016000205414155b15611b8d57600091505b8080600101915050611a6f565b508091505090565b828054828255906000526020600020908101928215611bde579160200282015b82811115611bdd578251825591602001919060010190611bc2565b5b509050611beb9190611bef565b5090565b611c1191905b80821115611c0d576000816000905550600101611bf5565b5090565b9056fe4f7261636c65206d75737420626520736574206265666f726520796f752063616e206d616b652061206265745468652077696e6e6572732068617665206265656e20646563696465642e20596f752063616e2074727920616e6420776974686472617720746f2073656520696620796f75206861766520776f6e2e616c6c20626574206f6e207468652073616d65206f7574636f6d652c2074616b6520796f757220626574206d6f6e6579206261636b4f6e6c792074686520636f6e7472616374206f776e65722063616e2073657420746865206f7574636f6d65734f6e6c7920746865206f7261636c652063616e2064656369646520746865206f7574636f6d65416c6c207468652067616d626c657273202832292068617665206e6f7420706c61636564206120626574207965742ea265627a7a72315820eb78cf075907618ffe5f650462c7af120b4ba83de4b07bf82f8c2529fca8d1f464736f6c634300050c0032",
  "source": "pragma solidity ^0.5.11;\n\n//import \"../contracts/strings.sol\";\n\ncontract Betting {\n\n\n\n    //contract owner and oracle can only be set once at the beginning.\n    address contract_owner;  //there can only be one contract owner, so no 'set contract' method specified.\n    address event_oracle;\n\n\n    address[] public gamblers;\n    address[] public list_of_winners;\n    uint[] all_the_possible_outcomes;\n\n    bool auction_closed = false;\n\n    mapping(address => uint) private map_addr_bet_amnt;\n    mapping(address => uint) private map_addr_bet_outc;\n    mapping(address => uint) private map_addr_bet_win_amt;\n\n\n    constructor() public\n    {\n        //the contract owner is set.\n        contract_owner = msg.sender;\n        emit owner_oracle_set_broadcast(msg.sender, \"Owner is set now\", address(this));\n    }\n\n    // all the events --start\n\n    event owner_oracle_set_broadcast(\n        address indexed _from,\n        string _value,\n        address contract_address\n    );\n\n    event bet(\n        address indexed _from,\n        uint _value,\n        string msg,\n        uint bet_value\n    );\n\n    event possible_outcomes_broadcast(\n        address indexed _from,\n        uint[] _value,\n        string msg\n    );\n\n    event common_event_msg(\n        string common_msg\n    );\n\n    // all the events --end\n\n    function set_oracle(address input) public{\n\n        require(event_oracle==address(0), \"Oracle cannot be reset\");\n        event_oracle = input;\n        emit owner_oracle_set_broadcast(event_oracle,\"Oracle is set now\",address(this));\n    }\n\n    // function get_oracle() public view returns (address){\n    //     return event_oracle;\n    // }\n\n    // function get_owner() public view returns (address){\n    //     return contract_owner;\n    // }\n\n    function get_gamblers_list() public view returns (address[] memory){\n        return gamblers;\n    }\n\n    function set_outcomes(uint[] memory outcomes) public{\n        require(msg.sender==contract_owner, \"Only the contract owner can set the outcomes\");\n        all_the_possible_outcomes = outcomes;\n        emit possible_outcomes_broadcast(msg.sender, all_the_possible_outcomes, \"The outcomes have been set\");\n    }\n\n\n    function make_a_bet(uint expected_outcome) public payable returns (uint,uint,address[] memory)\n    {\n        //validation starts\n        //the oracle should be set inorder to avoid oracle gambling first and then becoming oracle afterwards\n        require(event_oracle!=address(0), \"Oracle must be set before you can make a bet\");\n        //should not be an owner\n        require(msg.sender!=contract_owner, \"Owner cannot gamble\");\n        //should not be an oracle\n        require(msg.sender!=event_oracle, \"Oracle cannot gamble\");\n        //should not have placed a bet before\n        require(map_addr_bet_amnt[msg.sender]==0, \"You have already plavced a bet!\");\n        //should not place an empty bet (0)\n        require(msg.value>0,\"Please specify an amount\");\n        //validation ends\n\n        //make a bet\n        map_addr_bet_amnt[msg.sender] = msg.value;\n        map_addr_bet_outc[msg.sender] = expected_outcome;\n\n        //update variables\n        gamblers.push(msg.sender);\n\n        //emit an event to the blockchain\n        emit bet(msg.sender, msg.value, \"A bet was just made\", expected_outcome);\n\n        return (map_addr_bet_amnt[msg.sender],map_addr_bet_outc[msg.sender],gamblers);\n\n    }\n\n    function decide_winners(uint correct_outcome) public{\n\n        \n\n        //whom should the betting amount go to.\n        for (uint i = 0; i<gamblers.length; i++)\n        {\n            if(map_addr_bet_outc[gamblers[i]]==correct_outcome)\n            {\n                list_of_winners.push(gamblers[i]);\n            }\n        }\n\n    }\n\n\n    function get_winners_list() public view returns (address[] memory){\n        return list_of_winners;\n    }\n\n    function is_the_bet_same() public view returns(bool){\n        bool same_bet_bool = true;\n\n        //comparing if everyone has the same bet\n        for (uint i = 0; i<gamblers.length; i++)\n        {\n            if(i!=gamblers.length-1 && map_addr_bet_outc[gamblers[i]] != map_addr_bet_outc[gamblers[i+1]])\n            {\n                same_bet_bool = false;\n            }\n        }\n\n        return same_bet_bool;\n    }\n\n    function decide_the_outcome(uint correct_outcome) public returns(address[] memory){\n        //validation starts\n\n        //validate that all the gamblers have bet\n        require(gamblers.length==2,\"All the gamblers (2) have not placed a bet yet.\");\n\n        //validate that you are the oracle\n        require(msg.sender==event_oracle, \"Only the oracle can decide the outcome\");\n\n        //validate if the betting is still open\n        require(auction_closed==false, \"Betting is closed now\");\n    \n        //validation ends\n\n        //check if everyone has the same bet\n\n        bool same_bet_bool = is_the_bet_same();\n        \n\n        if(same_bet_bool)\n        {\n            //reimburse all the money\n            for (uint i = 0; i<gamblers.length; i++)\n            {\n                map_addr_bet_win_amt[gamblers[i]] = map_addr_bet_amnt[gamblers[i]];\n            }\n            emit common_event_msg(\"all bet on the same outcome, take your bet money back\");\n            //emit event : everyone bet on the same thing, not possible. take your money back\n        }\n        else\n        {\n            //this function decides who are the winners as per the outcome defined by the oracle.\n            decide_winners(correct_outcome);\n\n            uint total_bet_amount = get_total_bet_amount();\n            if(list_of_winners.length==0)\n            {\n                //emit event: no one had good luck. all the money goes to the oracle who decided the outcome\n                emit common_event_msg(\"No one wins but the oracle.\");\n                map_addr_bet_win_amt[event_oracle] = total_bet_amount;\n\n            }\n            else\n            {\n                //emit event: the winners have been decided, you can request to withdraw to see if you have won.\n                //give the amount on the basis of fair division.\n                emit common_event_msg(\"The winners have been decided. You can try and withdraw to see if you have won.\");\n                uint num_of_winners = list_of_winners.length;\n                for(uint i = 0;i<num_of_winners;i++)\n                {\n                    map_addr_bet_win_amt[list_of_winners[i]] = total_bet_amount/num_of_winners; //need to make changes for uneven division.\n                }\n            }\n        }\n\n        return list_of_winners;\n    }\n\n    function get_total_bet_amount() public view returns (uint){\n\n        //iterate over all the gamblers and get the total amount invested.\n        uint total_amount = 0;\n\n        for (uint i = 0; i<gamblers.length; i++)\n            total_amount += map_addr_bet_amnt[gamblers[i]];\n\n        return total_amount;\n    }\n\n\n    /**\n     This function allows the winners to withdraw their winning amount from the contract.\n     */\n    function take_my_winning_amount(uint amount) public payable returns (uint){\n        //validation starts\n        //withdrawer should be a winner\n        require(map_addr_bet_win_amt[msg.sender]!=0, \"You are not the winner, sorry!\");\n        require(map_addr_bet_win_amt[msg.sender] >= amount, \"You have withdrawn your amount\");\n\n        map_addr_bet_win_amt[msg.sender] -= amount;\n\n        if(!msg.sender.send(amount))\n        {\n            map_addr_bet_win_amt[msg.sender] += amount;\n        }\n\n        return map_addr_bet_win_amt[msg.sender];\n    }\n}",
  "sourcePath": "/media/ravi/Local Disk/ubuntu/bab_decal_spring_2018/Lab_Tasks/Lab_2/contracts/Betting.sol",
  "compiler": {
    "name": "solc",
    "version": "0.5.12+commit.7709ece9.Emscripten.clang"
  },
  "schemaVersion": "3.0.18",
  "updatedAt": "2019-11-26T23:35:40.275Z",
  "networkType": "ethereum",
  "devdoc": {
    "methods": {}
  },
  "userdoc": {
    "methods": {
      "take_my_winning_amount(uint256)": {
        "notice": "This function allows the winners to withdraw their winning amount from the contract."
      }
    }
  }
}