{
  "contractName": "Betting",
  "abi": [
    {
      "constant": true,
      "inputs": [
        {
          "internalType": "string",
          "name": "source",
          "type": "string"
        },
        {
          "internalType": "string",
          "name": "destination",
          "type": "string"
        }
      ],
      "name": "concatWithoutImport",
      "outputs": [
        {
          "internalType": "string",
          "name": "",
          "type": "string"
        }
      ],
      "payable": false,
      "stateMutability": "pure",
      "type": "function"
    },
    {
      "constant": true,
      "inputs": [
        {
          "internalType": "string",
          "name": "s",
          "type": "string"
        },
        {
          "internalType": "string",
          "name": "t",
          "type": "string"
        }
      ],
      "name": "concatWithImport",
      "outputs": [
        {
          "internalType": "string",
          "name": "",
          "type": "string"
        }
      ],
      "payable": false,
      "stateMutability": "pure",
      "type": "function"
    }
  ],
  "bytecode": "0x608060405234801561001057600080fd5b50610540806100206000396000f3fe608060405234801561001057600080fd5b50600436106100365760003560e01c80631eff86461461003b57806334d1460b14610206575b600080fd5b61018b6004803603604081101561005157600080fd5b810190808035906020019064010000000081111561006e57600080fd5b82018360208201111561008057600080fd5b803590602001918460018302840111640100000000831117156100a257600080fd5b91908080601f016020809104026020016040519081016040528093929190818152602001838380828437600081840152601f19601f8201169050808301925050505050505091929192908035906020019064010000000081111561010557600080fd5b82018360208201111561011757600080fd5b8035906020019184600183028401116401000000008311171561013957600080fd5b91908080601f016020809104026020016040519081016040528093929190818152602001838380828437600081840152601f19601f8201169050808301925050505050505091929192905050506103d1565b6040518080602001828103825283818151815260200191508051906020019080838360005b838110156101cb5780820151818401526020810190506101b0565b50505050905090810190601f1680156101f85780820380516001836020036101000a031916815260200191505b509250505060405180910390f35b6103566004803603604081101561021c57600080fd5b810190808035906020019064010000000081111561023957600080fd5b82018360208201111561024b57600080fd5b8035906020019184600183028401116401000000008311171561026d57600080fd5b91908080601f016020809104026020016040519081016040528093929190818152602001838380828437600081840152601f19601f820116905080830192505050505050509192919290803590602001906401000000008111156102d057600080fd5b8201836020820111156102e257600080fd5b8035906020019184600183028401116401000000008311171561030457600080fd5b91908080601f016020809104026020016040519081016040528093929190818152602001838380828437600081840152601f19601f8201169050808301925050505050505091929192905050506103d9565b6040518080602001828103825283818151815260200191508051906020019080838360005b8381101561039657808201518184015260208101905061037b565b50505050905090810190601f1680156103c35780820380516001836020036101000a031916815260200191505b509250505060405180910390f35b606092915050565b60608082518451016040519080825280601f01601f1916602001820160405280156104135781602001600182028038833980820191505090505b50905060008090505b84518110156104845784818151811061043157fe5b602001015160f81c60f81b82828151811061044857fe5b60200101907effffffffffffffffffffffffffffffffffffffffffffffffffffffffffffff1916908160001a905350808060010191505061041c565b5060008451905060008090505b84518110156104ff578481815181106104a657fe5b602001015160f81c60f81b8383806001019450815181106104c357fe5b60200101907effffffffffffffffffffffffffffffffffffffffffffffffffffffffffffff1916908160001a9053508080600101915050610491565b5081925050509291505056fea265627a7a72315820a6516fa5f147622cfefa41f1c59d19639ea4f4e07383849dee0d68456bb9326e64736f6c634300050c0032",
  "source": "pragma solidity ^0.5.11;\n\n//import \"../contracts/strings.sol\";\n\ncontract Betting {\n    function concatWithoutImport(string memory source, string memory destination) public pure returns (string memory)\n    {\n        bytes memory merged_string = new bytes(bytes(source).length+bytes(destination).length);\n        //use bytes when you do not know the length of the data\n        for(uint i = 0;i<bytes(source).length;i++)\n        {\n            merged_string[i] = bytes(source)[i];\n        }\n\n        uint j = bytes(source).length;\n\n        for(uint i = 0;i<bytes(destination).length;i++)\n        {\n            merged_string[j++] = bytes(destination)[i];\n        }\n\n        return string(merged_string);\n    }\n\n    /* BONUS */\n    function concatWithImport(string memory s, string memory t) public pure returns (string memory) {\n        //return s.toSlice().concat(t.toSlice());\n    }\n}",
  "sourcePath": "/media/ravi/Local Disk/ubuntu/bab_decal_spring_2018/Lab_Tasks/Lab_2/contracts/Betting.sol",
  "compiler": {
    "name": "solc",
    "version": "0.5.12+commit.7709ece9.Emscripten.clang"
  },
  "schemaVersion": "3.0.18",
  "updatedAt": "2019-11-21T04:06:54.358Z",
  "networkType": "ethereum",
  "devdoc": {
    "methods": {}
  },
  "userdoc": {
    "methods": {}
  }
}