{
  "contractName": "Fibonacci",
  "abi": [
    {
      "constant": true,
      "inputs": [
        {
          "internalType": "uint256",
          "name": "n",
          "type": "uint256"
        }
      ],
      "name": "fibRecur",
      "outputs": [
        {
          "internalType": "uint256",
          "name": "",
          "type": "uint256"
        }
      ],
      "payable": false,
      "stateMutability": "pure",
      "type": "function"
    },
    {
      "constant": true,
      "inputs": [
        {
          "internalType": "uint256",
          "name": "n",
          "type": "uint256"
        }
      ],
      "name": "fibIter",
      "outputs": [
        {
          "internalType": "uint256",
          "name": "",
          "type": "uint256"
        }
      ],
      "payable": false,
      "stateMutability": "pure",
      "type": "function"
    },
    {
      "constant": true,
      "inputs": [
        {
          "internalType": "uint256",
          "name": "n",
          "type": "uint256"
        }
      ],
      "name": "calculate_first_n_fibonacci",
      "outputs": [
        {
          "internalType": "uint256[]",
          "name": "",
          "type": "uint256[]"
        }
      ],
      "payable": false,
      "stateMutability": "pure",
      "type": "function"
    }
  ],
  "bytecode": "0x608060405234801561001057600080fd5b506103a0806100206000396000f3fe608060405234801561001057600080fd5b50600436106100415760003560e01c8063236edbee14610046578063c840476e146100c9578063dfe5adc11461010b575b600080fd5b6100726004803603602081101561005c57600080fd5b810190808035906020019092919050505061014d565b6040518080602001828103825283818151815260200191508051906020019060200280838360005b838110156100b557808201518184015260208101905061009a565b505050509050019250505060405180910390f35b6100f5600480360360208110156100df57600080fd5b810190808035906020019092919050505061029e565b6040518082815260200191505060405180910390f35b6101376004803603602081101561012157600080fd5b81019080803590602001909291905050506102f3565b6040518082815260200191505060405180910390f35b6060808260405190808252806020026020018201604052801561017f5781602001602082028038833980820191505090505b50905060018314156101ab5760008160008151811061019a57fe5b602002602001018181525050610295565b60028314156101ef576000816000815181106101c357fe5b6020026020010181815250506001816001815181106101de57fe5b602002602001018181525050610294565b60028311156102935760008160008151811061020757fe5b60200260200101818152505060018160018151811061022257fe5b6020026020010181815250506000600290505b838110156102915781600282038151811061024c57fe5b602002602001015182600183038151811061026357fe5b60200260200101510182828151811061027857fe5b6020026020010181815250508080600101915050610235565b505b5b5b80915050919050565b600060018214156102b257600090506102ee565b60028214156102c457600190506102ee565b60028211156102ed576102d96002830361029e565b6102e56001840361029e565b0190506102ee565b5b919050565b600060018214156103075760009050610366565b60028214156103195760019050610366565b600282111561036557600080905060006001905060008090506000600290505b858110156103595782840191508293508192508080600101915050610339565b82945050505050610366565b5b91905056fea265627a7a723158204e375e22c400d33417146edbff54638c9c38d4a6514e9452465504876b85e7b364736f6c634300050c0032",
  "source": "pragma solidity ^0.5.11;\n\ncontract Fibonacci {\n    /* Carry out calculations to find the nth Fibonacci number */\n    function fibRecur(uint n) public pure returns (uint) {\n        if(n==1)\n            return 0;\n        else if(n==2)\n            return 1;\n        else if(n>2)\n            return fibRecur(n-1) + fibRecur(n-2);\n    }\n\n    /* Carry out calculations to find the nth Fibonacci number */\n    function fibIter(uint n) public pure returns (uint) {\n        if(n==1)\n            return 0;\n        else if(n==2)\n            return 1;\n        else if(n>2)\n        {\n            uint prev = 0;\n            uint latest = 1;\n            uint sum = 0;\n            uint i = 2;\n            while(i<n)\n            {\n                sum = prev + latest;\n                prev = latest;\n                latest = sum;\n                i++;\n            }\n            return latest;\n        }\n    }\n\n\n    // returns an array of first n fibonacci numbers\n    function calculate_first_n_fibonacci(uint256 n) public pure returns(uint256[] memory)\n    {\n        uint256[] memory fib_numbers = new uint256[](n);\n        if(n==1)\n        {\n            fib_numbers[0] = 0;\n        }\n        else if(n==2)\n        {\n            fib_numbers[0] = 0;\n            fib_numbers[1] = 1;\n        }\n        else if(n>2)\n        {\n            fib_numbers[0] = 0;\n            fib_numbers[1] = 1;\n            uint i = 2;\n            while(i<n)\n            {\n                fib_numbers[i] = fib_numbers[i-1] + fib_numbers[i-2];\n                i++;\n            }\n        }\n        return fib_numbers;\n    }\n}",
  "sourcePath": "/media/ravi/Local Disk/ubuntu/bab_decal_spring_2018/Lab_Tasks/Lab_2/contracts/Fibonacci.sol",
  "compiler": {
    "name": "solc",
    "version": "0.5.12+commit.7709ece9.Emscripten.clang"
  },
  "schemaVersion": "3.0.18",
  "updatedAt": "2019-11-21T04:06:54.349Z",
  "networkType": "ethereum",
  "devdoc": {
    "methods": {}
  },
  "userdoc": {
    "methods": {}
  }
}