{
  "contractName": "Greeter",
  "abi": [
    {
      "inputs": [],
      "payable": false,
      "stateMutability": "nonpayable",
      "type": "constructor"
    },
    {
      "constant": true,
      "inputs": [],
      "name": "greet",
      "outputs": [
        {
          "internalType": "string",
          "name": "",
          "type": "string"
        }
      ],
      "payable": false,
      "stateMutability": "view",
      "type": "function"
    },
    {
      "constant": false,
      "inputs": [
        {
          "internalType": "string",
          "name": "_this_greeting",
          "type": "string"
        }
      ],
      "name": "change_greeting",
      "outputs": [
        {
          "internalType": "string",
          "name": "",
          "type": "string"
        }
      ],
      "payable": false,
      "stateMutability": "nonpayable",
      "type": "function"
    }
  ],
  "bytecode": "0x60806040526040518060400160405280600d81526020017f68656c6c6f2c20576f726c6421000000000000000000000000000000000000008152506000908051906020019061004f929190610062565b5034801561005c57600080fd5b50610107565b828054600181600116156101000203166002900490600052602060002090601f016020900481019282601f106100a357805160ff19168380011785556100d1565b828001600101855582156100d1579182015b828111156100d05782518255916020019190600101906100b5565b5b5090506100de91906100e2565b5090565b61010491905b808211156101005760008160009055506001016100e8565b5090565b90565b610429806101166000396000f3fe608060405234801561001057600080fd5b50600436106100365760003560e01c8063cfae32171461003b578063f783d709146100be575b600080fd5b6100436101f2565b6040518080602001828103825283818151815260200191508051906020019080838360005b83811015610083578082015181840152602081019050610068565b50505050905090810190601f1680156100b05780820380516001836020036101000a031916815260200191505b509250505060405180910390f35b610177600480360360208110156100d457600080fd5b81019080803590602001906401000000008111156100f157600080fd5b82018360208201111561010357600080fd5b8035906020019184600183028401116401000000008311171561012557600080fd5b91908080601f016020809104026020016040519081016040528093929190818152602001838380828437600081840152601f19601f820116905080830192505050505050509192919290505050610294565b6040518080602001828103825283818151815260200191508051906020019080838360005b838110156101b757808201518184015260208101905061019c565b50505050905090810190601f1680156101e45780820380516001836020036101000a031916815260200191505b509250505060405180910390f35b606060008054600181600116156101000203166002900480601f01602080910402602001604051908101604052809291908181526020018280546001816001161561010002031660029004801561028a5780601f1061025f5761010080835404028352916020019161028a565b820191906000526020600020905b81548152906001019060200180831161026d57829003601f168201915b5050505050905090565b606081600090805190602001906102ac92919061034f565b5060008054600181600116156101000203166002900480601f0160208091040260200160405190810160405280929190818152602001828054600181600116156101000203166002900480156103435780601f1061031857610100808354040283529160200191610343565b820191906000526020600020905b81548152906001019060200180831161032657829003601f168201915b50505050509050919050565b828054600181600116156101000203166002900490600052602060002090601f016020900481019282601f1061039057805160ff19168380011785556103be565b828001600101855582156103be579182015b828111156103bd5782518255916020019190600101906103a2565b5b5090506103cb91906103cf565b5090565b6103f191905b808211156103ed5760008160009055506001016103d5565b5090565b9056fea265627a7a723158202be2bb0cf7679e05a94e5d811ba8bfbf1b00160f49ebb7e925c6f3214075250064736f6c634300050c0032",
  "source": "pragma solidity ^0.5.11;\n\ncontract Greeter\n{\n\n    string private greeting_text = \"hello, World!\"; //private meaning only visible here ; just like java\n\n    //here is the difference between memory and storage.\n    /*\n    Storage variables are state level variables meaning they persist the state. they persist across contract calls.\n    Memory varibles are temporary RAM variables.\n    When you get a value of a storage variable like greeeing_text in a memory variable, a copy is made.\n    If you want to do some temporary manipulation, copy the data in memory and then do it.\n    If you want the data to persist, make changes to the storage referenced variable.\n    Really important link: https://medium.com/coinmonks/ethereum-solidity-memory-vs-storage-which-to-use-in-local-functions-72b593c3703a\n    */\n\n    //constructor\n    constructor() public{\n        //this does nothing.\n    }\n\n    //greeter\n    function greet() public view returns(string memory){\n        return greeting_text;\n    }\n    //this can modify the state variable.\n    function change_greeting(string memory _this_greeting) public returns(string memory){\n        greeting_text = _this_greeting;\n        return greeting_text;\n    }\n\n    //here is the difference between pure and constant;view\n    /*\n    constant or view indicates that the function would not be able to change the state of the contract. So network verification is not necessary.\n    pure indicates that the function would not even read the state of the contract.\n    state of the contract means the storage variables of the contract.\n    */\n\n}",
  "sourcePath": "/media/ravi/Local Disk/ubuntu/bab_decal_spring_2018/Lab_Tasks/Lab_2/contracts/Greeter.sol",
  "compiler": {
    "name": "solc",
    "version": "0.5.12+commit.7709ece9.Emscripten.clang"
  },
  "schemaVersion": "3.0.18",
  "updatedAt": "2019-11-22T02:25:23.929Z",
  "devdoc": {
    "methods": {}
  },
  "userdoc": {
    "methods": {}
  }
}