{
  "contractName": "xor",
  "abi": [
    {
      "constant": true,
      "inputs": [
        {
          "internalType": "uint256",
          "name": "x",
          "type": "uint256"
        },
        {
          "internalType": "uint256",
          "name": "y",
          "type": "uint256"
        }
      ],
      "name": "calculate_xor_value",
      "outputs": [
        {
          "internalType": "uint256",
          "name": "",
          "type": "uint256"
        }
      ],
      "payable": false,
      "stateMutability": "pure",
      "type": "function"
    },
    {
      "constant": true,
      "inputs": [
        {
          "internalType": "string",
          "name": "_binary_string",
          "type": "string"
        }
      ],
      "name": "calculate_xor_value_string",
      "outputs": [
        {
          "internalType": "uint256",
          "name": "",
          "type": "uint256"
        }
      ],
      "payable": false,
      "stateMutability": "pure",
      "type": "function"
    }
  ],
  "bytecode": "0x608060405234801561001057600080fd5b50610265806100206000396000f3fe608060405234801561001057600080fd5b50600436106100365760003560e01c8063243907101461003b578063ca52b7081461010a575b600080fd5b6100f46004803603602081101561005157600080fd5b810190808035906020019064010000000081111561006e57600080fd5b82018360208201111561008057600080fd5b803590602001918460018302840111640100000000831117156100a257600080fd5b91908080601f016020809104026020016040519081016040528093929190818152602001838380828437600081840152601f19601f820116905080830192505050505050509192919290505050610156565b6040518082815260200191505060405180910390f35b6101406004803603604081101561012057600080fd5b810190808035906020019092919080359060200190929190505050610212565b6040518082815260200191505060405180910390f35b60008060009050606083905060008090505b81518110156101e7577f310000000000000000000000000000000000000000000000000000000000000082828151811061019e57fe5b602001015160f81c60f81b7effffffffffffffffffffffffffffffffffffffffffffffffffffffffffffff191614156101da5782806001019350505b8080600101915050610168565b506000600283816101f457fe5b0614156102065760009250505061020d565b6001925050505b919050565b600081831415610225576000905061022a565b600190505b9291505056fea265627a7a723158206f98b637c6cdd904641e3e7d51e5a05776dcba754651a865bd2551ea55d4a0ac64736f6c634300050c0032",
  "source": "pragma solidity ^0.5.11;\n\ncontract xor\n{\n\n    //calculate xor value\n    function calculate_xor_value(uint x, uint y) public pure returns(uint)\n    {\n        if(x==y)\n            return 0;\n        else return 1;\n    }\n    //input a binary string and see its XOR\n    function calculate_xor_value_string(string memory _binary_string) public pure returns(uint)\n    {\n        //XOR would be 0 if there are even number of 1's else XOR is 1\n        uint number_of_1s = 0;\n        bytes memory _binary_bytes = bytes(_binary_string);\n        for(uint i = 0;i < _binary_bytes.length;i++)\n        {\n            if(_binary_bytes[i]=='1')\n                number_of_1s++;\n        }\n        if(number_of_1s%2==0)\n            return 0;\n        else\n            return 1;\n    }\n\n}",
  "sourcePath": "/media/ravi/Local Disk/ubuntu/bab_decal_spring_2018/Lab_Tasks/Lab_2/contracts/xor.sol",
  "compiler": {
    "name": "solc",
    "version": "0.5.12+commit.7709ece9.Emscripten.clang"
  },
  "schemaVersion": "3.0.18",
  "updatedAt": "2019-11-22T02:25:23.932Z",
  "devdoc": {
    "methods": {}
  },
  "userdoc": {
    "methods": {}
  }
}