{
  "contractName": "GoodAuction",
  "abi": [
    {
      "constant": true,
      "inputs": [],
      "name": "getHighestBidder",
      "outputs": [
        {
          "name": "",
          "type": "address"
        }
      ],
      "payable": false,
      "stateMutability": "view",
      "type": "function"
    },
    {
      "constant": true,
      "inputs": [],
      "name": "getHighestBid",
      "outputs": [
        {
          "name": "",
          "type": "uint256"
        }
      ],
      "payable": false,
      "stateMutability": "view",
      "type": "function"
    },
    {
      "payable": true,
      "stateMutability": "payable",
      "type": "fallback"
    },
    {
      "constant": false,
      "inputs": [],
      "name": "bid",
      "outputs": [
        {
          "name": "",
          "type": "bool"
        }
      ],
      "payable": true,
      "stateMutability": "payable",
      "type": "function"
    },
    {
      "constant": false,
      "inputs": [],
      "name": "withdrawRefund",
      "outputs": [
        {
          "name": "",
          "type": "bool"
        }
      ],
      "payable": false,
      "stateMutability": "nonpayable",
      "type": "function"
    },
    {
      "constant": true,
      "inputs": [],
      "name": "getMyBalance",
      "outputs": [
        {
          "name": "",
          "type": "uint256"
        }
      ],
      "payable": false,
      "stateMutability": "view",
      "type": "function"
    },
    {
      "constant": false,
      "inputs": [],
      "name": "reduceBid",
      "outputs": [],
      "payable": false,
      "stateMutability": "nonpayable",
      "type": "function"
    }
  ],
  "bytecode": "0x6060604052341561000f57600080fd5b61053d8061001e6000396000f300606060405260043610610077576000357c0100000000000000000000000000000000000000000000000000000000900463ffffffff1680623495a414610079578063057ae235146100ce578063110f8874146100e35780631998aeef146101105780634979440a146101325780634c7389091461015b575b005b341561008457600080fd5b61008c610184565b604051808273ffffffffffffffffffffffffffffffffffffffff1673ffffffffffffffffffffffffffffffffffffffff16815260200191505060405180910390f35b34156100d957600080fd5b6100e16101ad565b005b34156100ee57600080fd5b6100f6610289565b604051808215151515815260200191505060405180910390f35b6101186103bc565b604051808215151515815260200191505060405180910390f35b341561013d57600080fd5b6101456104c0565b6040518082815260200191505060405180910390f35b341561016657600080fd5b61016e6104ca565b6040518082815260200191505060405180910390f35b60008060009054906101000a900473ffffffffffffffffffffffffffffffffffffffff16905090565b60008060009054906101000a900473ffffffffffffffffffffffffffffffffffffffff168073ffffffffffffffffffffffffffffffffffffffff163373ffffffffffffffffffffffffffffffffffffffff1614151561020b57600080fd5b6001915081600154036001819055506000821115610285576000809054906101000a900473ffffffffffffffffffffffffffffffffffffffff1673ffffffffffffffffffffffffffffffffffffffff166108fc839081150290604051600060405180830381858888f19350505050151561028457600080fd5b5b5050565b6000806000600260003373ffffffffffffffffffffffffffffffffffffffff1673ffffffffffffffffffffffffffffffffffffffff16815260200190815260200160002054915060008214156102e257600092506103b7565b6000600260003373ffffffffffffffffffffffffffffffffffffffff1673ffffffffffffffffffffffffffffffffffffffff168152602001908152602001600020819055503373ffffffffffffffffffffffffffffffffffffffff166108fc839081150290604051600060405180830381858888f1935050505090508015156103b25781600260003373ffffffffffffffffffffffffffffffffffffffff1673ffffffffffffffffffffffffffffffffffffffff16815260200190815260200160002081905550600092506103b7565b600192505b505090565b60008060006103c9610184565b91506103d36104c0565b9050803411151561042b5734600260003373ffffffffffffffffffffffffffffffffffffffff1673ffffffffffffffffffffffffffffffffffffffff16815260200190815260200160002081905550600092506104bb565b80600260008473ffffffffffffffffffffffffffffffffffffffff1673ffffffffffffffffffffffffffffffffffffffff1681526020019081526020016000208190555034600181905550336000806101000a81548173ffffffffffffffffffffffffffffffffffffffff021916908373ffffffffffffffffffffffffffffffffffffffff160217905550600192505b505090565b6000600154905090565b6000600260003373ffffffffffffffffffffffffffffffffffffffff1673ffffffffffffffffffffffffffffffffffffffff168152602001908152602001600020549050905600a165627a7a7230582068dd9d838e59f1590689ee1ad99c47816fe1970ea391c789b675d39538af14180029",
  "source": "pragma solidity 0.4.19;\n\nimport \"./AuctionInterface.sol\";\n\n/** @title GoodAuction */\ncontract GoodAuction is AuctionInterface {\n\n\t/* New data structure, keeps track of refunds owed */\n\tmapping(address => uint) refunds;\n\n\n\t/* \tBid function, now shifted to pull paradigm\n\t\tMust return true on successful send and/or bid, bidder\n\t\treassignment. Must return false on failure and \n\t\tallow people to retrieve their funds  */\n\tfunction bid() payable external returns(bool) {\n\t\t// YOUR CODE HERE\n\n\n\t\t// if(msg.sender!=getHighestBidder())\n\t\t// {\n\t\t// \trefunds[msg.sender] = msg.value;\n\t\t// \treturn false;\n\t\t// }\n\n\n\t\t// uint highestBidAmnt = getHighestBid();\n\t\t// if(msg.value<=highestBidAmnt)\n\t\t// {\n\t\t// \trefunds[msg.sender] = msg.value;\n\t\t// \treturn false;\n\t\t// }\n\t\t\n\t\t\n\t\taddress highestBidderAddress = getHighestBidder();\n\t\t// bool sentSuccess = highestBidderAddress.send(highestBidAmnt);\n\n\n\t\t// if(!sentSuccess)\n\t\t// {\n\t\t// \trefunds[msg.sender] = msg.value;\n\t\t// \treturn false;\n\t\t// }\n\n\t\t// highestBid = msg.value;\n\t\t// highestBidder = msg.sender;\n\n\t\t// return true;\n\n\n\t\tuint highestBidAmnt = getHighestBid();\n\t\tif(msg.value<=highestBidAmnt)\n\t\t{\n\t\t\trefunds[msg.sender] = msg.value;\n\t\t\treturn false;\n\t\t}\n\t\t\n\t\trefunds[highestBidderAddress] = highestBidAmnt;\n\n\t\thighestBid = msg.value;\n\t\thighestBidder = msg.sender;\n\n\t\treturn true;\n\n\t}\n\n\t/*  Implement withdraw function to complete new \n\t    pull paradigm. Returns true on successful \n\t    return of owed funds and false on failure\n\t    or no funds owed.  */\n\tfunction withdrawRefund() external returns(bool) {\n\t\t// YOUR CODE HERE\n\n\t\tuint amountOwed = refunds[msg.sender];\n\n\t\tif(amountOwed==0)\n\t\t\treturn false;\n\t\t\n\t\trefunds[msg.sender] = 0; \n\t\t\n\t\tbool transfer = msg.sender.send(amountOwed);\n\n\t\tif(!transfer)\n\t\t{\n\t\t\trefunds[msg.sender] = amountOwed;\n\t\t\treturn false;\n\t\t}\n\n\t\treturn true;\n\t}\n\n\t/*  Allow users to check the amount they are owed\n\t\tbefore calling withdrawRefund(). Function returns\n\t\tamount owed.  */\n\tfunction getMyBalance() constant external returns(uint) {\n\t\treturn refunds[msg.sender];\n\t}\n\n\n\t/* \tConsider implementing this modifier\n\t\tand applying it to the reduceBid function \n\t\tyou fill in below. */\n\tmodifier onlyBy(address _account) {\n\t\trequire(msg.sender == _account);\n\t\t_;\n\t}\n\n\n\t/*  Rewrite reduceBid from BadAuction to fix\n\t\tthe security vulnerabilities. Should allow the\n\t\tcurrent highest bidder only to reduce their bid amount */\n\t// function reduceBid() \n\t// \texternal\n\t// \tonlyBy(highestBidder)\n\t// {\n\t// \taddress highestBidderAddress = getHighestBidder();\n\t// \tuint highestBidAmnt = getHighestBid();\n\n\t// \t//require(msg.sender == highestBidderAddress);\n\n\t// \trequire(highestBidAmnt >= 1);\n\n\t// \thighestBid = highestBid - 1;\n\t\t\n\t// \tbool transfer = highestBidderAddress.send(1);\n\n\t// \tif(!transfer)\n\t// \t{\n\t// \t\thighestBid += 1;\n\t// \t}\n\t// }\n\n\tfunction reduceBid() external onlyBy(highestBidder) \n\t{\n\t\t// address hg = getHighestBidder();\n\t\t// require(msg.sender==hg);\n\t\t// assert(1 <= highestBid);\n\n\t\t// highestBid = highestBid - 1;\n\n\t\t// bool transfer = highestBidder.send(1);\n\t\t// if(!transfer)\n\t\t// {\n\t\t// \thighestBid = highestBid + 1; \n\t\t// \trevert();\n\t\t// }\n\n\n\t\tuint amountToWithdraw = 1;\n  highestBid = highestBid - amountToWithdraw;\n  if (amountToWithdraw > 0) \n  {\n    if (!(highestBidder.send(amountToWithdraw))) \n\t{ \n\t\trevert();\n\t}\n  }\n\t}\n\n\n\n\t/* \tRemember this fallback function\n\t\tgets invoked if somebody calls a\n\t\tfunction that does not exist in this\n\t\tcontract. But we're good people so we don't\n\t\twant to profit on people's mistakes.\n\t\tHow do we send people their money back?  */\n\n\tfunction () payable {\n\t\t// YOUR CODE HERE\n\t}\n\n}\n",
  "sourcePath": "/media/ravi/Local Disk/ubuntu/bab_decal_spring_2018/Lab_Tasks/Lab_3/contracts/GoodAuction.sol",
  "compiler": {
    "name": "solc",
    "version": "0.4.19+commit.c4cbbb05.Emscripten.clang"
  },
  "schemaVersion": "3.0.18",
  "updatedAt": "2019-12-04T19:06:10.147Z",
  "networkType": "ethereum",
  "devdoc": {
    "methods": {},
    "title": "GoodAuction "
  },
  "userdoc": {
    "methods": {}
  }
}